:020000040000FA
:100000000205EEC2DE75D902D2DE22020CF212091E
:10001000C9E52A6030E5326003120A0D1207FD12AD
:100020000BC8EF24F860082404700BE4FF80027F03
:10003000011207058003753001AF29EF3395E0FE0B
:10004000120CB680CC120B99D3E52C952EE52B958E
:0A0050002D4006852B2D852C2E2255
:10005B0002032DC2D530F707B2D563F0FF05F030A0
:10006B00E70CB2D5F4048463F0FF05F08001843013
:10007B00D502F40422BB010CE58229F582E5833A13
:10008B00F583E0225006E92582F8E622BBFE06E95D
:10009B002582F8E222E58229F582E5833AF583E4AD
:1000AB009322BC000BBE0029EF8DF084FFADF02234
:1000BB00E4CCF875F008EF2FFFEE33FEEC33FCEEDB
:1000CB009DEC984005FCEE9DFE0FD5F0E9E4CEFDCE
:1000DB0022EDF8F5F0EE8420D21CFEADF075F008A1
:1000EB00EF2FFFED33FD4007985006D5F0F222C3FA
:1000FB0098FD0FD5F0EA22C2D5EC30E709B2D5E472
:10010B00C39DFDE49CFCEE30E715B2D5E4C39FFF25
:10011B00E49EFE1200ADC3E49DFDE49CFC80031243
:10012B0000AD30D507C3E49FFFE49EFE22EB9FF5A5
:10013B00F0EA9E42F0E99D42F0EC6480C86480983E
:10014B0045F022F5F0C582A4C582C5F0C583A42570
:10015B0083F58322EF4E6012EF60010EEDBB010BB6
:10016B0089828A83F0A3DFFCDEFA2289F05007F73D
:10017B0009DFFCA9F022BBFEFCF309DFFCA9F0228E
:10018B00E709F608DFFA807BE9D39850F3E92FF9FA
:10019B00E82FF819E718F6DFFA8068E709F208DFAD
:1001AB00FA806080E388828C83E709F0A3DFFA8012
:1001BB0052E309F608DFFA804AE9D398500EE92F8B
:1001CB00F9E82FF819E318F2DFFA8037E309F208A0
:1001DB00DFFA802F88828C83E309F0A3DFFA802378
:1001EB0089828A83E0A3F608DFFA801789828A83E3
:1001FB00E493A3F208DFF9800A89828A83E0A3F2F1
:10020B0008DFFA02029D80B180F980A580C680DCF0
:10021B0080F180738010808380E98087808780D90C
:10022B0080E180BC8073D3E998EA9C5039E92FF5C3
:10023B0082EA3BF583E82FF8EC3BFC0582D5820282
:10024B0015831582E493C8C582C8CCC583CC0582BF
:10025B00D5820215831582F0C8C582C8CCC583CC64
:10026B00DFD9DED7802E89828A83ECFAE493A3C888
:10027B00C582C8CCC583CCF0A3C8C582C8CCC58306
:10028B00CCDFE9DEE7800D89828A83E493A3F6084D
:10029B00DFF9ECFAA9F0EDFB22D3E998EA9C503890
:1002AB00E92FF582EA3BF583E82FF8EC3BFC05825E
:1002BB00D5820215831582E0C8C582C8CCC583CC14
:1002CB000582D5820215831582F0C8C582C8CCC5BC
:1002DB0083CCDFDADED880BC89828A83ECFAE0A398
:1002EB00C8C582C8CCC583CCF0A3C8C582C8CCC551
:1002FB0083CCDFEADEE8809C809888F08E83EF6009
:10030B00010E4E608DED2402B404005085F582EB96
:10031B002402B4040050E123234582AB83239002D3
:10032B001173C0E0C0F0C083C082C0D075D008305C
:10033B00D842C2D80539E53970020538E53A600C68
:10034B00E53964067004E5386401600EE53A701314
:10035B00E539B4070EE538B4010975380075390075
:10036B00633A01C284749025FBF5FB740135FCF5EF
:10037B00FC02040830D92FC2D9749025E9F5E97431
:10038B000135EAF5EAE5387019E5391424FD506DAD
:10039B00241C600B24C0700A753B01D284805E75EF
:1003AB003B00D284805730DA54C2DA749025EBF5D7
:1003BB00EB740135ECF5ECE53B6042E53924D8FFF5
:1003CB00E53834FFFE7C007D06120102EF7803C393
:1003DB0033CE33CED8F92400F58274003EAF82FEC3
:1003EB00E4FD0FEFAA0E70010E14F5828A83E0F57F
:1003FB00A3E5F830E1FB0DBD08E875A300D0D0D024
:10040B0082D083D0F0D0E032AF19EF3395E0FE7499
:10041B00002FF58274003EF58322AF00EF3395E099
:10042B00FEEF253DF53DEE353CF53CFEAF3DE4FCE6
:10043B00FD7BED7AFDF9F8D3020138A2E713FF3308
:10044B0095E0FEAD1BED3395E0FCED2FFFEC3EFE92
:10045B0074042FF582740E3EF583E49322AF13EFF1
:10046B003395E0FEEF7803227F057E00120CB6E594
:10047B0000D3940522FFC3E49FF58274019EF5839C
:10048B0074002FF974003E22753CFD753DED22750D
:10049B008BF4758DFD2274FB2500F500227D007B0E
:1004AB00017A00790022AE15AF167C007D0A02009E
:1004BB00AD120DA1E4F513E51375F00812005EF50E
:1004CB0015E51375F00812005E85F016E4F514AF10
:1004DB0015AD14120AE78D82F583740312014EE5F4
:1004EB00822FF582E5833EF583E58224E1F582E5F3
:1004FB0083340DF583E4120AF19516FF74017E0027
:10050B00A807088005C333CE33CED8F9FFEE5CFEC7
:10051B00EF5D4E600AE514240DFD7F3F12097D054A
:10052B0014C3E5146480948540A512054794954047
:10053B0086E4F513120547949640F9221208D67FEC
:10054B00647E00120CB60513C3E513648022120DF2
:10055B00A1E4F511E51125E025E0F512E4F510E530
:10056B00105407F513E510131313541F2512900D98
:10057B00F0120AF19513FF74017E00A8070880059D
:10058B00C333CE33CED8F9FFEE5CFEEF5D4E600D7C
:10059B00E5102410FFE511240DFD12097D0510E572
:1005AB0010C3942040B90511E511C3940540A57FF4
:1005BB00DC7E05120CB6E4F5137F0A7E00120CB636
:1005CB007F05120C6DEF2410FFC0077F03120C6D1B
:1005DB00EF240CFDD00712097D0513E513C394FF1F
:1005EB0040D722120DD6787FE4F6D8FD75813D02F7
:1005FB000638020D81E493A3F8E493A34003F6803D
:10060B0001F208DFF48029E493A3F85407240CC803
:10061B00C333C4540F4420C8834004F456800146AE
:10062B00F6DFE4800B0102040810204080900D8C53
:10063B00E47E019360BCA3FF543F30E509541FFED9
:10064B00E493A360010ECF54C025E060A840B8E44A
:10065B0093A3FAE493A3F8E493A3C8C582C8CAC5CD
:10066B0083CAF0A3C8C582C8CAC583CADFE9DEE75F
:10067B0080BE8F108D11151015105310FC05100531
:10068B0010E4F512C3E51264809484500DAD11AFE4
:10069B001012097D0512051080EAD531071204BC32
:1006AB00E4F52A22AB2CAA2BE4FDFF120A8BAF1127
:1006BB00EF3395E0FE74D12FF582740D3EF583E494
:1006CB0093FF3395E0FEEF252CF52CEE352BF52B18
:1006DB00AB2CFAE4FDFF120A8BC3E53464809480E3
:1006EB005003120AFBC3E51164809489500BE52972
:1006FB00648094944003752914228F10120B39E5F2
:10070B0010B5280DC3E53064809484500705308004
:10071B0003753001E510603EC3743F9527FFC3643A
:10072B0080F8E52F6480985048E530120AD4E5270D
:10073B00FB3395E0FAC3743F9BFBE49AFAC3ED9B42
:10074B00EA6480F8EC6480985008E52F2530FEFFB2
:10075B0080008F2F801BD3E52F648094814012E59E
:10076B002F9530FFD364809481400280027F018FEC
:10077B002F120B39851028228F1D8D1E8B1FE4F530
:10078B0026F524C3E5206480F8E524648098505F47
:10079B00E4F525C3E51F6480F8E525648098504B8C
:1007AB00AB21AA22A923AF24EF3395E08F82F583E7
:1007BB00120080FD3395E0FCC374079525FF74018F
:1007CB007E00A807088005C333CE33CED8F9FFEEE1
:1007DB005CFEEF5D4E6010E51D2525FFE51E252413
:1007EB00FD12097DEF4226052580A805248094AFD4
:1007FB002622120868E5338535F0A42536F536C375
:10080B00648094805005E4F536800CD3E536648023
:10081B0094BF400375363FE5342537F537D36480F5
:10082B00949F400575371F800CC3E5376480948611
:10083B005003753706120868EF6003020870E5373E
:10084B00641F7018AD37AF3612097D120AC8120A31
:10085B008B152A120AC8120A8B75320122AD37AFDB
:10086B003612097D227F0A120C1DAD37AF361209E5
:10087B007DAD37AF36120C47EF6009AD37AF36128F
:10088B00067D8040AD37AF36120D0AEF6022E5379B
:10089B00B40603120AFBE5366004643F7026E533A9
:1008AB00F404F533E534B41F1BC39534F5348014CD
:1008BB00120AFBE536652F6008E52F252714B536A0
:1008CB0003753502AD37AF3602097DE4F517E51731
:1008DB0075F008A4F519E4F518120413E025E0F0FF
:1008EB0012041AC083C082E0FFE519FD3395E0FCCA
:1008FB0074012DF58274003CF583E0C4131313547B
:10090B0001FEEF4ED082D083F005190518E518B41F
:10091B0007C7120413E025E0F00517E517642070F4
:10092B00AD228F188D19EB75F00A12005EABF0EB50
:10093B0075F003A4F51BE4F51AE51A30E00A12046E
:10094B0046C454F0F51C8007E51A120446F51C75D5
:10095B00200175210075220075231C7B04AD19AF96
:10096B00181207830519051AC3E51A64809485408C
:10097B00C822AC07EC75F00812005EAFF0C3740729
:10098B009FFF7401A807088002C333D8FCFBAF0597
:10099B0012046AC333CE33CED8F9FFEC75F00812CC
:1009AB00005EFD3395E0FCEF2DFFEE3C120419E0E9
:1009BB006BF012041AE05B7F0070027F0122752737
:1009CB0008E4F52BF52C752A03752928752F1C12B5
:1009DB000DA1120B6A120C92AB2CAA2BE4FDFF1289
:1009EB000A8B120AC8120A8BAB2EAA2DE4FD7F2CA0
:1009FB00120A8B120B39E4F530F52875320175317B
:100A0B007822120BC8EF70FA75371EE527A2E71391
:100A1B00252FF536AD37FF12097D120DC78F1075D7
:100A2B0034FF120D1CEF600575330180037533FF26
:100A3B00120D1CEF60057535018003753502E4F569
:100A4B003222AB07AA06A905EBF47002EAF4600D9B
:100A5B00EFF58A8A8CC28FD28C8A3C8B3DE4FDE900
:100A6B00FFEDFB3395E0FAC3EB9F7480F86A985067
:100A7B000A7F217E00120CB60D80E4C28CC2872245
:100A8B008F138D148A158B16E5132410F517C3E5F8
:100A9B00136480F8E51764809840211204B1AB050C
:100AAB00AD14AF1712092D1204B18E158F16E51662
:100ABB004515600874FC2517F51780D222E52AFB33
:100ACB003395E0FAE4FD7F0C22FD3395E0FCE52F36
:100ADB00FB3395E0FAEB2DFDEA3CFC22EF3395E07E
:100AEB00FEED3395E02293FD3395E0FCC3740722B2
:100AFB00E534F404F534228F13E513603053131FE0
:100B0B00120468C333CE33CED8F9120480A801FC8B
:100B1B007D011204AAAE83AF82120305120468C3CF
:100B2B0033CE33CED8F9FF1204A812015F22852FE2
:100B3B0011AF27AD2F120AE7FCED2FFFEC3EFEADF8
:100B4B0011ED3395E0FCC3ED9FEE6480F8EC64800F
:100B5B0098500B7D1FAF1112097D051180D322E434
:100B6B00F5107D06AF10120B8E94BF40F575100774
:100B7B00AD10E4FF12097DAD107F3F120B8E949FD9
:100B8B0040EE2212097D0510D3E510648022751109
:100B9B00FF751264E4F5107F01120B027D02AF1298
:100BAB00AE11120A4D74BA2512F51274FF3511F5F8
:100BBB00110510C3E510648094A040DB22E4F5110D
:100BCB00120D3DF512120D3DFFB5120405118005F6
:100BDB00E4F5118F127F017E00120CB6C3E5116490
:100BEB0080948A40E0AF1222120DAB120DB2120D9F
:100BFB00CE120DB9120DD2120CD6120D2D120DC034
:100C0B00120003120D4D120D67120D74120D5A02C4
:100C1B000D97AE0712049A53887F438840EE6016F7
:100C2B00120D1CEF24FF9287E58830E7F012049A2F
:100C3B0053887F1E80E75388BFC28722C3EF64802F
:100C4B009482401BD3EF648094BD5013C3ED64803A
:100C5B009488400BD3ED6480948F50037F01227FE7
:100C6B000022AD07E4FBFAED6018EB25E0FBEA335D
:100C7B00FA120D1CEF3395E0FEEF2BFBEE3AFA1D4B
:100C8B0080E5AE02AF0322751108751002AD11AFEE
:100C9B001012097D0510D3E510648094BD40EE055C
:100CAB0011D3E5116480948F40E02212049AC28F15
:100CBB00438910D28EEF4E600F308FFDEF1F700106
:100CCB001E12049AC28F80EDC28E22AF885388AF5A
:100CDB00758CFD758AF4758DFD758BF4EF5440FEA4
:100CEB00EF54104E428822C0E0C0D0C28DA287B311
:100CFB009287E53DF58AE53CF58CD0D0D0E032ED1E
:100D0B0064066006EF6003BF3F047F0180027F0033
:100D1B0022C2EDD2EFD2EC30EDFDC2EFE5BD5401B6
:100D2B00FF22E5C8540453C8FB75CBF975CAC04202
:100D3B00C822E5805460C31324C0FFE590540F2FE5
:100D4B00F42253F77F75DA4975FB9075FC01227518
:100D5B00A20743A14053F8F343F8012253F77F75E1
:100D6B00DB4975E9AE75EA012253F77F75DC4975EE
:100D7B00EBD675EC0122120BF312055912000E8003
:100D8B00FB02380000013A00013B000075E61075CC
:100D9B00F31075A882227E017F001204A802015F66
:100DAB007597DE7597AD2275A49575D4F82275E30A
:100DBB004075E10222758E1275891122120BC8EF54
:100DCB0060FA2275D50F2275A90122020DA1070722
:100DDB00050503030101CEEAE8AAAAA8CCEAA8AA52
:100DEB00AAA0CAA4E8CEEEAEAEAA8AAAA4CCEECA3A
:100DFB00A4AA8AAAA4CAEAAEE4EAAAE04C44E0E2B6
:100E0B00E8E0E2E2E0AAE220E8E2E088EAE0E222BF
:070E1B0020EAEAE0EAE22010
:00000001FF
