:020000040000FA
:1000000002023AC2DE75D902D2DE220203AA12032C
:10001000821203891203AF1203901203B312003845
:1000200012034012039712000312004E12035D12D6
:10003000036A12035002039EAF885388AF758CFE8B
:10004000758A70EF5440FEEF54104E42882253F7E9
:100050007F75DA4975FB9075FC012202005EC0E0F5
:10006000C0F0C083C082C0D075D000C000C001C045
:1000700002C003C004C005C006C00730D84BC2D8B8
:10008000C2820509E50970020508E50A6013E50961
:10009000B4060EE508B40109750800750900630A85
:1000A00001E50A7013E509B4070EE508B401097506
:1000B0000800750900630A01C284749025FBF5FBF2
:1000C000740135FCF5FC02015930D92FC2D9749066
:1000D00025E9F5E9740135EAF5EAE5087019E5095D
:1000E0001424FD5074241C600B24C0700A750B018D
:1000F000D2848065750B00D284805E30DA5BC2DA10
:10010000749025EBF5EB740135ECF5ECE50B6049EB
:10011000E50924D8FFE50834FFFE7C007D061201C6
:10012000AFEF7803C333CE33CED8F92400F974008F
:100130003E750C01F50D890EE4FFAB0C050EE50EC6
:10014000AA0D7002050D14F9120196F5A3E5F83019
:10015000E1FB0FBF08E475A300D007D006D005D09F
:1001600004D003D002D001D000D0D0D082D083D030
:10017000F0D0E032C2D530F707B2D563F0FF05F01A
:1001800030E70CB2D5F4048463F0FF05F0800184FD
:1001900030D502F40422BB010689828A83E0225012
:1001A00002E722BBFE02E32289828A83E49322C211
:1001B000D5EC30E709B2D5E4C39DFDE49CFCEE30FC
:1001C000E715B2D5E4C39FFFE49EFE1201E5C3E448
:1001D0009DFDE49CFC80031201E530D507C3E49F3C
:1001E000FFE49EFE22BC000BBE0029EF8DF084FFD1
:1001F000ADF022E4CCF875F008EF2FFFEE33FEEC03
:1002000033FCEE9DEC984005FCEE9DFE0FD5F0E929
:10021000E4CEFD22EDF8F5F0EE8420D21CFEADF028
:1002200075F008EF2FFFED33FD4007985006D5F02D
:10023000F222C398FD0FD5F0EA22120317787FE46B
:10024000F6D8FD75810E0202840203A5E493A3F89B
:10025000E493A34003F68001F208DFF48029E493DD
:10026000A3F85407240CC8C333C4540F4420C883D4
:100270004004F456800146F6DFE4800B01020408D6
:1002800010204080900377E47E019360BCA3FF546C
:100290003F30E509541FFEE493A360010ECF54C024
:1002A00025E060A840B8E493A3FAE493A3F8E493AC
:1002B000A3C8C582C8CAC583CAF0A3C8C582C8CAB4
:1002C000C583CADFE9DEE780BEAC07EC75F0081233
:1002D0000174AFF0C374079FFF7401A80708800280
:1002E000C333D8FCFBAF05EF3395E0FEEF7803C3D3
:1002F00033CE33CED8F9FFEC75F008120174FD331C
:1003000095E0FCEF2DFFEE3CFE74002FF5827400AB
:100310003EF583E06BF0227E017F00900000E4F068
:10032000A3DFFCDEFAE4FDFF1202C97D1FE4FF1229
:1003300002C9E4FD7F3F1202C97D1F7F3F0202C94F
:10034000E5C8540453C8FB75CBF975CAC042C8222E
:1003500075A20743A14053F8F343F8012253F77FF6
:1003600075DB4975E9AE75EA012253F77F75DC4903
:1003700075EBD675EC012202080000010A00010BA2
:1003800000007597DE7597AD2275A49575D4F82297
:1003900075E3C075E10222758E117589012275E63B
:1003A0001075A8822212000E80FEC28DC2833275A3
:0703B000D50F2275A90122FF
:00000001FF
